:020000040800F2
:10000000404A0020A52C0008ED040008EF04000879
:10001000F1040008F3040008F504000800000000E3
:10002000000000000000000000000000F7040008CD
:10003000F904000800000000FB040008FD040008AB
:10004000BF2C0008BF2C0008BF2C0008BF2C0008E4
:10005000BF2C0008BF2C0008BF2C0008BF2C0008D4
:10006000BF2C0008BF2C000807050008BF2C0008A3
:10007000BF2C0008BF2C0008BF2C0008BF2C0008B4
:10008000BF2C0008BF2C0008BF2C0008BF2C0008A4
:10009000BF2C0008BF2C0008BF2C00080905000871
:1000A000BF2C0008BF2C0008BF2C0008BF2C000884
:1000B000BF2C0008BF2C0008BF2C0008BF2C000874
:1000C000BF2C0008BF2C0008BF2C0008BF2C000864
:1000D000BF2C0008751D0008BF2C0008BF2C0008AD
:1000E0004F260008BF2C0008BF2C0008DFF810D0F6
:1000F00004F090FE0048004749010008AFF300807B
:10010000404A002000B593B0C1788278CDE9002143
:1001100043780278B5A103A804F0A6FE00F005FB21
:1001200000210823B7A2084600F0DEFC00F0ECFA3C
:1001300003A804F067FA81B203A801F0A5FD6420CA
:1001400000F0F9F913B000BD88B003A803F099F9E5
:1001500000F00DFA00F0FAFA4FF4E13002F080FC02
:1001600001F0FCFB0823ABA23021002000F0BCFC16
:1001700000F0CAFA01F0BAFD4FF4FA7000F0DBF9B2
:1001800000F0E4FA00F0D1FA0823A5A23021002003
:1001900000F0AAFC00F0B8FA01F08AFE02F00CFAB6
:1001A00002F0D0FA02F076FA002002F0BBFA02F078
:1001B00035FA02F005FB3021042001F06BFB01F061
:1001C00082FB7821A02001F0A0FB4FF4804631464D
:1001D000964801F010FC01F050FC954D4FF47A77F1
:1001E00001F0E7FD2878002831D00020287002F0C7
:1001F000E7FA00F09AFA002108238EA2084600F0E0
:1002000073FC08238FA22021002000F06DFC00F079
:100210007BFA0E218EA001F037FD322000F08BF921
:100220003146824801F034FC08238DA230210020A1
:1002300000F05AFC4FF400518C4802F0E5FF02F048
:10024000A9FA00F061FA4FF4967000F074F9642096
:1002500001F032FD60B386A104F0B8F930B300209C
:1002600002F060FA642000F066F95A2002F05AFAAF
:1002700000F05BFA0021082380A2084600F034FC5D
:1002800002F088FA00F040FA052000F062F9002040
:1002900002F048FA00F049FA002108237AA2084641
:1002A00000F022FC02F076FA00F02EFA01F0B2FC27
:1002B00001F01DFF02F002F801A9262002F058F813
:1002C000262877D1322000F036F902A802F079F81A
:1002D0002628F6D100F029FA002108236DA208464D
:1002E00000F002FC00F010FA02A8FFF70BFF314605
:1002F0004E4801F0CDFB00F018FA0021082369A256
:10030000084600F0F1FB082369A21021002000F04C
:10031000EBFB00F0F9F91E243EE0642001F0CCFC78
:10032000002836D052A104F051F978B3002002F031
:10033000F9F9642000F0FFF85A2002F0F3F900F018
:10034000F4F9002108235EA2084600F0CDFB082343
:100350004AA21021002000F0C7FB02F01BFA00F0B7
:10036000D3F9052000F0F5F8002002F0DBF900F0E9
:10037000DCF90021082344A2084600F0B5FB02F096
:1003800009FA00F0C1F901F045FC08E0FFE701F0CF
:1003900041FC642000F0CFF8641EE4B2BDD2C4B9C1
:1003A00000F0C3F90021082348A2084600F09CFB96
:1003B000082300E016E049A21021002000F094FB81
:1003C00002F0FEF902F0FCF900F09EF9384600F068
:1003D000B2F801F0B4FF01F07DFF384600F0ABF851
:1003E00001F06CFF322000F0A6F8F9E643415244D8
:1003F0003A2530325825303258253032582530329F
:10040000580D0A0053656E64696E6720436172641B
:100410003A0000005875654A696E67436F6E670061
:10042000636F6E6E65637465640000003C000020BD
:100430000C000020427574746F6E205072657373E7
:100440006564000053656E64696E672E2E2E000091
:10045000425554544F4E5F4556454E540D0A0000C8
:1004600050686F746F2053656E7400000010014077
:100470004F50454E5F444F4F52000000446F6F7223
:10048000204F70656E656400446F6F7220436C6F1F
:1004900073656400436172642044657465637465C8
:1004A00064000000436172642053656E74000000B4
:1004B00057616974696E6720417574682E2E2E002D
:1004C000436172642056616C696400004175746810
:1004D0002054696D656F75740000000041636365A9
:1004E00073732044656E6965640000007047FEE721
:1004F000FEE7FEE7FEE77047704770470348016874
:10050000491C0160704770477047000000000020E0
:1005100000280FD02649274A0968B1FBF2F1414370
:100520004FF0E020416100218161052101610169F5
:10053000C903FCD5704710B50346002B08D04FF413
:100540007A7402E02046FFF7E3FF5B1E581CF9D1E6
:1005500010BD30B50446002C08D04FF47A7502E087
:100560002846FFF7E8FF641E601CF9D130BD104833
:100570004FF47A710068B0FBF1F0B0F1807F01D3E5
:1005800001200DE020F07F414FF0E020491E416145
:10059000094AF021117000218161072101610020C9
:1005A000002800D0FEE7704704480068704700004C
:1005B0001000002040420F0023ED00E0000000206A
:1005C00002464FF48071F84802F020BE02464FF414
:1005D0000071F54802F01ABE38B500214FF47A7266
:1005E0000020401C9042FCD3491C9142F8D30121C9
:1005F000082002F09EFF14208DF8030003208DF8E0
:1006000002004FF48070ADF80000E74C69462046C8
:1006100002F089FD6115ADF800106946204602F030
:1006200082FD0120FFF7CCFF0120FFF7CFFF38BD8F
:1006300010B50120FFF7CAFF0120FFF7C1FF00201E
:10064000FFF7C4FFBDE810400020B9E710B5002057
:10065000FFF7BCFF0120FFF7B3FFBDE8104001200A
:10066000B4E770B505460024802626FA04F0284039
:1006700000D00120FFF7AAFF0120FFF7A1FF002013
:10068000FFF79EFF641CE4B2082CEED30120FFF7B5
:1006900097FFBDE87040002092E710B50446FFF7D1
:1006A000C7FF7820FFF7DDFF0020FFF7DAFF2046C5
:1006B000FFF7D7FFBDE81040C8E770B505460E4606
:1006C000FFF7B6FF7820FFF7CCFF4020FFF7C9FF08
:1006D000002404E0285DFFF7C4FF641CE4B2B442C8
:1006E000F8D3BDE87040B1E710B50C4640F0B0005B
:1006F000FFF7D3FF102040EA1410FFF7CEFF04F0FD
:100700000F00BDE81040C8E770B50024A74D0021D8
:100710002046FFF7E9FF05EBC4108021FFF7CDFF6E
:10072000641CE4B2082CF2D370BD10B500219F4CBC
:100730000022002004EBC1131A54401CC0B28028D0
:10074000FAD3491CC9B20829F3D310BD10B5FFF77D
:1007500043FFAE20FFF7A1FFD520FFF79EFF8020CB
:10076000FFF79BFFA820FFF798FF3F20FFF795FFBB
:10077000D320FFF792FF0020FFF78FFF4020FFF705
:100780008CFFA120FFF789FFC820FFF786FFDA2042
:10079000FFF783FF1220FFF780FF8120FFF77DFF27
:1007A000CF20FFF77AFFD920FFF777FFF120FFF77F
:1007B00074FFDB20FFF771FF3020FFF76EFFA420EE
:1007C000FFF76BFFA620FFF768FF8D20FFF765FF9F
:1007D0001420FFF762FFAF20FFF75FFFFFF7A5FFD1
:1007E000BDE8104090E70346012000E05843491E51
:1007F0004A1CFBD170472DE9F047089F00260024D2
:10080000451E29E032F914C0BC4502DD4FF0010954
:1008100001E04FF0000932F91580B84502DD4FF0D4
:10082000010A01E04FF0000AD14512D031F91590CC
:1008300031F91450A7EB0C0AA9EB050909FB0AF9D9
:10084000A8EB0C0C99FBFCFC65449D4201DD46B114
:1008500000262546641C24B28442D3DBF0B2BDE8F6
:10086000F0870126F5E72DE9F041884616461F4638
:1008700004F0C6F804460D46404604F0C1F822468E
:100880002B4605F0FDF84A4A4A4B04F041F8002295
:10089000494B03F0CBFF04F0D1F800B2BE4206DAB8
:1008A000B0420ADBB84208DC0120BDE8F081B0426A
:1008B00001DAB84201DC0120F7E70020F5E72DE975
:1008C000F04105461746C81701EB5070C01004B23E
:1008D000C818401EC21700EB5270012202EBE00064
:1008E00006B2002903DA641E24B2761E36B2DFF89F
:1008F000BC8011E07F2D0DD8002C0BDB072C09DC10
:10090000E9B2E0B2FFF7F0FE08EBC4102844394624
:10091000FFF7D3FE641C24B2B442EBDBC5E72DE93C
:10092000F041CF1823E0044686181CE07F2C18D82D
:10093000002916DB3F2914DCCB1701EB5373DD10C4
:100940004FEAC51C194D23F007036544A1EB0308CA
:1009500015F804C0012303FA08F32CEA030C05F888
:1009600004C0641C24B2A642E0DC491C09B28F42D8
:10097000D9DC9AE710B500210C4C002004EBC11221
:10098000135CDB431354401CC0B28028F8D3491CCD
:10099000C9B20829F1D310BD2DE9F041CF182EE0DE
:1009A0000446861827E00000000C01403C4000206F
:1009B0001F85EB51B81E0940008066407F2C18D877
:1009C000002916DB3F2914DCCB1701EB5373DD1034
:1009D0004FEAC51CFE4D23F007036544A1EB030855
:1009E00015F804C0012303FA08F38CEA030C05F898
:1009F00004C0641C24B2A642E0DC491C09B28F4248
:100A0000CEDC52E72DE9FF4F0F46DDF834909046DB
:100A10001D4600242B46424639460098FFF77FFFCB
:100A20006D1EE81705EB50700121DFF8A4C301EB40
:100A3000E00A3BE0002035E000990D187F2D2FD80B
:100A4000F91707EB5171CA1016B221F007017B1A92
:100A5000002F03DA761E36B208331BB2311907298C
:100A60000DD804FB08FB09EB000E0CEBC1121BF8C0
:100A70000EB0565D0BFA03FB46EA0B065655491CB1
:100A800007290DD804FB08F609EB000B0CEBC1118C
:100A900016F80B604A5DC3F10803DE4032434A5545
:100AA000401CC0B24045C7D3641CE4B2A245C1DCBF
:100AB000BDE8FF8F08B5203A082B0CD0062B09D1D2
:100AC000C44B02EB420203EB4202009208230622CF
:100AD000FFF798FF08BDC04B03EB021200921023F2
:100AE0000822FFF78FFF08BD2DE9FF4F83B0814635
:100AF00017469A4600250024DFF8E0B264E00006BD
:100B00000AD4012128466D1C385CADB28DF8040072
:100B100000208DF8050010E00221681C7A5D80B28B
:100B20008DF804203A5C002A51D0421C385C95B202
:100B30008DF8050000208DF80600012901D000265F
:100B400013E009EB04009DF8042000B25346049919
:100B5000FFF7B0FF04EB0A0084B235E0404601A97C
:100B600003F057FD68B1761CB6B2C6EBC60000EBC9
:100B7000800000EB0B089AA1404603F04AFD0028D4
:100B8000ECD1BAF1080F03D0BAF1060F1CD111E075
:100B9000C6EBC60000EB80005844C01C009009EB77
:100BA0000400102300B21A460499FFF72BFF1034FB
:100BB000A4B209E009EB040000B206233F22049925
:100BC000FFF778FFA41DA4B2785D002897D107B085
:100BD000BDE8F08F2DE9F04F8046DDF824A08B466C
:100BE00091461F4600240A2514E0391B491E0A209D
:100BF000FFF7F9FDB9FBF0F6B6FBF5F005FB106267
:100C000004FB0A80303200B253465946FFF752FFC8
:100C1000641CE4B2BC42E8D3DAE72DE9F047804631
:100C2000DDF820908A4616461F46002E06DB4B460E
:100C30002B2251464046FFF73DFF06E04B462D2252
:100C400051464046FFF736FF764200240A2514E05D
:100C5000391B491E0A20FFF7C6FDB6FBF0F0B0FBBA
:100C6000F5F105FB1102641C04FB0980303200B26F
:100C70004B465146FFF71EFFE4B2BC42E8D3EEE517
:100C80002DE9F0470646DDF820808A4691461F464A
:100C900000241FE0391B491E1020FFF7A4FDB9FBFB
:100CA000F0F000F00F050A2D09D204FB0860303582
:100CB000EAB200B243465146FFF7FCFE08E004FBEF
:100CC00008603735EAB200B243465146FFF7F2FEFC
:100CD000641CE4B2BC42DDD3C1E52DE9F043064615
:100CE000DDF81C80894617461D46002412E0291BAA
:100CF000491E0220FFF777FDB7FBF0F000F001027C
:100D000004FB0860303200B243464946FFF7D2FE8A
:100D1000641CE4B2AC42EAD3BDE8F0832DE9FF5F86
:100D200082B00746DDE9108B129E14461D46002254
:100D300013462046294603F0D1FE06D833462B221F
:100D400038460399FFF7B6FE07E033462D223846B2
:100D50000399FFF7AFFE85F000452046294603F0D2
:100D60008CFE8246504603F05CFE22462B4603F082
:100D70005AFD04460D4659460A20FFF734FD8146C8
:100D8000484603F04EFE22462B4603F04FFD04F08A
:100D900045FF03F072FE0446B4FBF9F000EB0A02D3
:100DA000B81900B2434600960399FFF713FF08F104
:100DB000010000FB067000B233462E220399FFF7B4
:100DC00079FE08F1020808FB067000B25B4609E0F4
:100DD0003C40002022640008325E00085C66000887
:100DE00000000000224600960399FFF7F3FE06B0CC
:100DF000BDE8F09F0FB470B5C0B005460E4614466E
:100E000048AA6846479904F043F823466A463146A3
:100E10002846FFF769FE40B070BC5DF814FB10B5C2
:100E20007F2812D8002910DB3F290EDCCA1701EBFE
:100E30005272D310DC01FE4B22F0070223448A1ABF
:100E40001C5C012191400C431C5410BD10B57F283F
:100E500014D8002912DB3F2910DCCA1701EB5272AB
:100E6000D310F34C22F0070204EBC3138A1A185C68
:100E700001219140084201D0012010BD002010BD89
:100E80002DE9F04F07460C4616461D464FF0000868
:100E9000C146AC420ED1B74209DD38463746064658
:100EA00005E021463846FFF7BAFF7F1C3FB2B74244
:100EB000F7DD8DE6B7420ED1AC4209DD20462C4667
:100EC000054605E021463846FFF7A9FF641C24B219
:100ED000AC42F7DD7CE605DD38463746064620465F
:100EE0002C460546AC4205DD604204B2684205B2BC
:100EF0004FF00108281BF11B884207DD38462746C2
:100F0000044630462E4605464FF00109F11B281BCA
:100F100042000FFA82FA421A52000FFA82FBC1EB2A
:100F2000400005B2B8F1000F08D0B9F1000F05D0AC
:100F3000784201B22046FFF772FF43E0B8F1000F9C
:100F400005D0604201B23846FFF769FF3AE0B9F1D7
:100F5000000F04D039462046FFF761FF32E02146FA
:100F60003846FFF75CFF2DE07F1C3FB2002D03DA0F
:100F700005EB0A0005B204E0641C24B205EB0B008B
:100F800005B2B8F1000F08D0B9F1000F05D07842D2
:100F900001B22046FFF743FF14E0B8F1000F05D07F
:100FA000604201B23846FFF73AFF0BE0B9F1000F9B
:100FB00004D039462046FFF732FF03E02146384689
:100FC000FFF72DFFB742CFDB02E62DE9F043814664
:100FD0000798884608EB030609EB0207002801D0B2
:100FE0004D462CE04D46701E04B209E041462846AD
:100FF000FFF715FF21462846FFF711FF6D1C2DB2A4
:10100000AF42F3DC44467F1E3DB209E0214648462C
:10101000FFF705FF28462146FFF701FF641C24B2B5
:10102000A642F3DC78E6444605E021462846FFF771
:10103000F6FE641C24B2A642F7DC6D1C2DB2AF4252
:10104000F1DC69E62DE9F04785B00D46DDE90D9A42
:101050000F9906461446984630462F46ADF80C6068
:10106000ADF80E40ADF81090ADF80450ADF8068024
:10107000ADF808A0002919D0844200DA2046814545
:1010800000DA4846B84500DA4746BA4500DA57461E
:10109000B44200DD2646B14500DD4E46A84500DDE0
:1010A0004546AA4500DD5546804629E0434622468E
:1010B00029463046FFF7E4FE53464A462946304665
:1010C000FFF7DEFE53464A4641462046FFF7D8FE6C
:1010D00005B0D4E53C460DE0434601AA03A9032030
:1010E0000094FFF788FB18B121464046FFF797FEB2
:1010F000641C24B2AC42EFDD08F101080FFA88F855
:10110000B045E7DDE4E72DE9FF4F88B080460E46A5
:10111000C2F1010900251446301901B20FFA88F016
:101120000746FFF77CFE301B01B23846FFF777FE1B
:1011300031B208EB04000F4600B2FFF770FEA8EBD7
:101140000400394600B2FFF76AFE0B9800287FD0F2
:10115000604207B206E0F01901B24046FFF75FFEB9
:101160007F1C3FB2A742F6DB72E06D1C2DB2B9F1D5
:10117000000F05DA09EB4500401C0FFA80F907E083
:10118000641E24B2281B09EB4000401C0FFA80F9B2
:10119000301901B208EB05000FFA80FA50460791AA
:1011A000FFF73DFE701901B208EB040007B2CDE96C
:1011B00005713846FFF733FE301B01B2A8EB05007E
:1011C0000FFA80FBCDE903B15846FFF728FE701BEC
:1011D00001B2A8EB040000B2CDE901010090FFF7D5
:1011E0001EFE50460499FFF71AFE38460299FFF793
:1011F00016FE58460799FFF712FE06990098FFF76A
:101200000EFE0B9820B3604207B20BE0F01901B25A
:101210008B465046FFF703FE59460398FFF7FFFD44
:101220007F1C3FB2A742F1DB684207B20EE000002C
:101230003C400020F01901B28A460198FFF7EFFD0B
:1012400051460598FFF7EBFD7F1C3FB2AF42F1DB43
:10125000A5428ADB0CB0BBE42DE9F04F99B00646FD
:101260000F4693461C4605940025059C6042179046
:1012700003F0C6FB0022FE4B03F031FA80460BFB65
:101280000BFB8946584603F0BBFBCDE915104246DF
:101290004B4603F0CBFA8046059889464043824688
:1012A00003F0AEFBCDE9131042464B4603F017FAAC
:1012B00003F02CFC04902298A0B117980FFA80F844
:1012C0000EE007EB080001B289463046FFF7A7FDA4
:1012D00049463046FFF7A3FD08F101080FFA88F8E8
:1012E000A045EEDB38190FFA80F8701900B24146BC
:1012F0001290FFF794FD381B01B2701B0FFA80F9B2
:1013000048461191FFF78BFD41464846FFF787FDA0
:10131000DDE91110FFF783FD5BE00498B0F5000FE5
:101320000BDA032000EB45000AFB00F003F05FFB43
:10133000049903F07CF9049012E0032000EB4500CF
:10134000624202210AFB00F001EB42010BFB0100AB
:1013500003F04DFB049903F06AF90490641E24B273
:101360000C9805B22298D0B160420FFA80F870193B
:1013700000B21090701B00B20F900EE007EB080057
:1013800001B289461098FFF74AFD49460F98FFF7CA
:1013900046FD08F101080FFA88F8A045EEDB381980
:1013A0000FFA80F8701900B241460E90FFF737FD32
:1013B000381B0FFA80F9701B00B249460D90FFF7F9
:1013C0002EFD41460D98FFF72AFD49460E98FFF77E
:1013D00026FD204603F014FB0022A54B03F020FA63
:1013E000DDE9153203F022FA8046681C0C9089462C
:1013F00000FB0AF003F004FB42464B4603F056FBA9
:101400008BD305990BFB01F0484303F0F9FACDE9C2
:101410000201601E0BFB00F1484303F0F1FACDE935
:101420000001284603F0ECFA0022914B03F057F933
:10143000DDE913328046894603F0F8F942464B460F
:1014400003F0F4F9DDE9002303F049F9DDE90223B3
:1014500003F0E6F903F05AFB81465AE0B9F5000FB4
:1014600013DA022000EB4500624203210AFB00F080
:1014700001EB42010BFB010003F0B9FA494603F00E
:10148000D6F881466D1C2DB20BE06142032000EBC3
:1014900041000BFB00F003F0AAFA494603F0C7F83D
:1014A0008146641E24B22298D0B160420FFA80F8BF
:1014B000701900B20A90701B00B209900EE007EBA1
:1014C000080001B20B910A98FFF7A9FC0B99099843
:1014D000FFF7A5FC08F101080FFA88F8A045EEDB3C
:1014E000381901B2701900B2CDE90701FFF797FC76
:1014F000381B01B2701B0FFA80F840460691FFF7C7
:101500008EFC40460899FFF78AFCDDE90610FFF7DC
:1015100086FC002CA2DC19B0CBE42DE9FF5F074666
:101520000E46C2F1010A00251446214628460E9BAC
:10153000039AFFF798F90FFA87F820B1301901B232
:101540004046FFF76CFC604201B24FF0000B894649
:1015500058460E9B039AFFF786F920B1301B01B263
:101560004046FFF75CFC294620460E9B039AFFF796
:101570007AF90FFA86F820B13819414600B2FFF720
:101580004EFC594648460E9B039AFFF76CF920B172
:10159000381B414600B2FFF742FC0F98002814D0D8
:1015A000C84610E0414600200E9B039AFFF75BF906
:1015B00028B106EB080001B23846FFF730FC08F10D
:1015C00001080FFA88F8A045ECDBCDE06D1C2DB2C8
:1015D000BAF1000F05DA0AEB4500401C0FFA80FA59
:1015E00007E0641E24B2281B0AEB4000401C0FFADF
:1015F00080FA214628460E9B039AFFF734F928B15A
:10160000301901B2781900B2FFF709FC29462046CB
:101610000E9B039AFFF727F928B1701901B2381908
:1016200000B2FFF7FCFB604201B2684200B289469B
:1016300083460E9B039AFFF716F928B1301B01B2BF
:10164000781B00B2FFF7EBFB594648460E9B039A06
:10165000FFF709F928B1701B01B2381B00B2FFF780
:10166000DEFB494628460E9B039AFFF7FCF801E093
:101670000000E03F28B1301B01B2781900B2FFF73B
:10168000CEFB594620460E9B039AFFF7ECF828B193
:10169000701B01B2381900B2FFF7C1FB2146584652
:1016A0000E9B039AFFF7DFF828B1301901B2781BBF
:1016B00000B2FFF7B4FB294648460E9B039AFFF79A
:1016C000D2F828B1701901B2381B00B2FFF7A7FB9E
:1016D0000F98E8B3C8461FE0414628460E9B039A80
:1016E000FFF7C1F830B106EB080001B2781900B27B
:1016F000FFF795FB414658460E9B039AFFF7B3F858
:1017000030B106EB080001B2781B00B2FFF787FB8F
:1017100008F101080FFA88F8A045DDDBD84621E082
:10172000414648460E9B039AFFF79DF830B106EB01
:10173000080001B2381B00B2FFF771FB414620469A
:101740000E9B039AFFF78FF840B106EB080000E00C
:101750000AE001B2381900B2FFF761FB08F1010895
:101760000FFA88F8A845DBDBA542FFF62FAFBDE8EE
:10177000FF9F000010B5EE4C0821204601F044FD0B
:101780000A20FEF7D8FE0821204601F03BFDBDE807
:1017900010400A20FEF7CFBEE54A002803D0022100
:1017A000104601F02FBD0221104601F02DBD10B5ED
:1017B0000122FF21602001F025F90A21602001F0BB
:1017C00033F94FF6FF7101EA00240B21602001F08C
:1017D0002BF9204310BD10B50122FF21602001F03C
:1017E00011F91C21602001F01FF94FF6FF7101EA89
:1017F00000241D21602001F017F9204310BDF8B529
:1018000001211C2001F095FE03208DF80200102517
:101810008DF803500820ADF80000C54E69463046EB
:1018200001F081FC04248DF803403021ADF8001054
:101830006946304601F077FC8DF803400121ADF890
:1018400000106946304601F06EFC8DF8035002200E
:10185000ADF800006946304601F065FC8DF80340A4
:10186000FF20ADF800006946B24801F05CFCF8BD0D
:1018700070B5B2260024B04D09E005EB440015F820
:1018800014104278602001F0BDF8641CA4B2B44288
:10189000F3D370BD70B504460D460022FF216020D1
:1018A00001F0B0F82A46D321602001F0ABF8012204
:1018B000FF21602001F0A6F82246BDE8704011210A
:1018C000602001F09FB870B5082600249B4D09E008
:1018D00005EB440015F814104278602001F092F8EE
:1018E000641CA4B2B442F3D307260024944D09E04B
:1018F00005EB440015F814104278602001F082F8DE
:10190000641CA4B2B442F3D370BD70B584088D08D2
:101910000022FF21602001F075F80422E021602000
:1019200001F070F8E2B25A21602001F06BF8EAB2DF
:101930005B21602001F066F8A809C0F38000C4F3C1
:10194000012141EA80025C21602001F05BF8BDE8E2
:1019500070400022E021602001F054B810B500F082
:1019600041FFFFF74CFFFFF705FF0020FFF714FFD3
:10197000BDE810407CE72DE9F04106460F46002007
:101980006B4A083211688906FCD56A4C08340BE0B2
:101990001168C907FCD021683154401C1368D9076D
:1019A000FCD11168C906F3D411688906F9D4002561
:1019B00016E0705DD82812D1701910F8011CFF29AB
:1019C0000DD105F5706408E0315DD92904D13119D4
:1019D00011F8011CFF2907D0641CBC42F4D36D1C14
:1019E000BD42E6D3BDE8F081611B891C89B2401E6F
:1019F00000F04AF9F3E730B591B004460D460121F5
:101A0000084601F08BFD4B4A0832069207940024E9
:101A1000089409950A9480200B900C940D940E94D0
:101A20004FF440500F90109406A9464801F01FFA59
:101A30000121022001F088FD4FF6FF70ADF8100083
:101A4000ADF80C40ADF81240ADF80E403E4D03A984
:101A5000284601F0ADFE0821ADF80010ADF80240B7
:101A60000121ADF80410ADF80640ADF80840694614
:101A7000284602F0CBF811B030BD10B50121314835
:101A800001F01FFABDE8104001212F4802F061B9B2
:101A900010B50C46264A083211688906FCD52A4939
:101AA0000C3113E01368DB0606D50B881B0503D445
:101AB0000B8843F400630B801368DB0606D40B88A5
:101AC0001B0503D50B8823F400630B8013689B066A
:101AD000E8D4002208E0815CD82904D1811811F8EB
:101AE000011CFF2902D0521CA242F4D3134608E085
:101AF000C15CD92904D1C11811F8011CFF290ED0ED
:101B00005B1CA342F4D30F481C38C16921F00101CA
:101B1000C1610462C16941F00101C16110BD991A3E
:101B2000891C104489B2401E00F0AEF8EBE70000BB
:101B3000000C014000080140B05C0008145E000881
:101B4000245E00081C000240000400404FF0E0202A
:101B5000016921F004010161A1480921017042F2EB
:101B60002831C18070479E49097848434FF0E021F1
:101B7000486100238B61012008610869C20701D018
:101B8000C003FAD50B618B617047002810D09449CF
:101B9000C98848434FF0E021486100238B61012050
:101BA00008610869C20701D0C003FAD50B618B61D7
:101BB000704770B54FF4FA75B0FBF5F1CCB2B0FBDD
:101BC000F5F105FB110604E02846FFF7DEFF641E71
:101BD000E4B2002CF8D1002E03D03046BDE87040AE
:101BE000D3E770BD2DE9F04107460D4616460024A7
:101BF0000CE015F8011B384602F02CFC4021384659
:101C000002F095FC0028F9D0641CA4B2B442F0D3D1
:101C1000BDE8F08110B54FF40071724802F0CBFCC2
:101C20006F490020488010BD6D494888002805D0C4
:101C30008A88904204D10020488070470120704774
:101C400088800120704770B506460D46C82430468E
:101C500002F0D8FC82B231466348FFF7C3FF0EE0C2
:101C6000FFF7E2FF40B929465E4802F0AFFC18B129
:101C7000FFF7D0FF002070BD0A20FFF786FF641E2B
:101C8000E4B2EDD2012070BD30B589B004460D46F6
:101C9000FFF7C0FF2A4655A101A803F0E5F857A1B8
:101CA00001A8FFF7D0FF002804D12A4621464E485C
:101CB000FFF798FF09B030BD10B50446FFF7B4FF39
:101CC00060B94FA1474802F081FC38B13A2102F0D7
:101CD0008FFC08B1401C10BD002010BD0520FFF78F
:101CE00054FF641EA4B2E9D2002010BD10B5FFF766
:101CF0002DFFFFF78FFF4FF4FA7402E02046FFF745
:101D000044FF41A141A0FFF79EFF0028F6D102E069
:101D10002046FFF73AFF3CA13EA0FFF794FF0028C2
:101D2000F6D102E02046FFF730FF37A13DA0FFF7D4
:101D30008AFF0028F6D102E02046FFF726FF3DA1EA
:101D40003EA0FFF780FF0028F6D102E02046FFF713
:101D50001CFF2DA141A0FFF776FF0028F6D102E07D
:101D60002046FFF712FF41A142A0FFF76CFF0028B9
:101D7000F6D110BD10B51C4C40F22551204602F0A2
:101D8000E1FB002814D0164A5088B0F5007F01D33B
:101D9000002050801448001D008851884B1C53803F
:101DA000104A50542046BDE81040202102F0C6BB26
:101DB00010BD10B53AA10B4802F008FC28B1084943
:101DC00001204870BDE8104024E736A1054802F024
:101DD000FDFB002802D0BDE810401BE710BD00004D
:101DE000040000203C4400200038014041542B43B3
:101DF000495053454E443D25640D0A003E00000005
:101E00004950442C000000004F4B000041540D0A83
:101E10000000000041542B43574D4F44453D310DC8
:101E20000A00000041542B4357444843503D312C95
:101E3000310D0A00474F54204950000041542B43B4
:101E4000574A41503D2254657374222C22746573A5
:101E5000743132333435220D0A00000041542B43D3
:101E600049504D4F44453D300D0A0000434F4E4E02
:101E70004543540041542B43495053544152543D1F
:101E800022544350222C223139322E3136382E3210
:101E900030332E3630222C383038390D0A0000000D
:101EA000706963004F50454E5F444F4F5200000031
:101EB000F8B501210C2001F03CFB4FF48050ADF847
:101EC000000003248DF8024010258DF80350FA4ECF
:101ED0006946304601F027F96802ADF800008DF838
:101EE00002408DF803506946304601F01CF9E802C3
:101EF000ADF800008DF802408DF803506946304679
:101F000001F011F9A802ADF800008DF8024004209C
:101F10008DF803006946304601F005F94020ADF820
:101F200000008DF802408DF803506946304601F0FC
:101F3000FAF8F8BD2DE9F04704460026DFF878836B
:101F40004FF400573946404601F05EF90220FEF793
:101F5000DFFA4FF4805A5146404601F055F902200D
:101F6000FEF7D6FA7E2000EA440040F080050824FF
:101F70004FF40049280604D54946404601F042F98D
:101F800003E04946404601F03FF90220FEF7C0FA5F
:101F90003946404601F036F90220FEF7B9FA6806E4
:101FA000050E3946404601F02FF90220FEF7B0FA3F
:101FB000641EE4B2002CDDD108244FF48049394678
:101FC000404601F01FF90220FEF7A2FA7006050E46
:101FD0004946404601F002F940EA050639464046C6
:101FE00001F012F90220FEF793FA641EE4B2002C0D
:101FF000E5D13946404601F005F90220FEF788FA9E
:102000005146404601F0FEF80220FEF781FA3046C4
:10201000BDE8F0872DE9F04704460E46DFF89882C8
:102020004FF400573946404601F0EEF84FF4805A1D
:102030005146404601F0E8F87E2000EA44050824B5
:102040004FF40049280604D54946404601F0DAF825
:1020500003E04946404601F0D7F80220FEF758FA5F
:102060003946404601F0CEF80220FEF751FA6806E4
:10207000050E3946404601F0C7F80220FEF748FA3F
:10208000641EE4B2002CDDD10824300604D5494694
:10209000404601F0B7F803E04946404601F0B4F885
:1020A0000220FEF735FA3946404601F0ABF802202F
:1020B000FEF72EFA7006060E3946404601F0A4F8E7
:1020C0000220FEF725FA641EE4B2002CDDD1394669
:1020D000404601F097F80220FEF71AFA51464046B2
:1020E00001F090F8BDE8F0470220FEF711BA10B5F4
:1020F000714C4021204601F085F80120FEF708FAD6
:102100004021204601F080F80120FEF701FA40212D
:10211000204601F077F80120FEF7FAF90F2101209F
:10212000FFF778FF0120FFF705FFC006FAD4012072
:10213000FEF7EEF93D211120FFF76CFF1E212D2047
:10214000FFF768FF00212C20FFF764FF8D212A2074
:10215000FFF760FF3E212B20FFF75CFF4021152099
:10216000FFF758FF262010BD70B505460C462846DF
:10217000FFF7E0FE40EA04012846BDE8704049E769
:1021800070B505460C462846FFF7D4FE20EA040148
:102190002846BDE870403DE72DE9FF5F8246DDF847
:1021A00038900D4693464FF0BB0800260027BAF141
:1021B0000C0F05D0BAF10E0F04D11226102701E042
:1021C0007726302746F080010220FFF723FF802189
:1021D0000420FFF7D5FF00210120FFF71BFF80211E
:1021E0000A20FFF7C1FF002404E0295D0920FFF762
:1021F00011FF641C5C45F8D351460120FFF70AFF2C
:10220000BAF10C0F03D180210D20FFF7ADFF0420A0
:10221000FFF790FE40F2DC540420FFF78BFE0546EA
:10222000641E1CB1E80701D13D42F5D080210D208C
:10223000FFF7A6FF3CB10620FFF77CFE10F01B0F56
:102240000DD04FF0BB0880210C20FFF78DFF00213F
:102250000120FFF7DFFE04B04046BDE8F09F4FF0DD
:1022600026083540E80701D04FF0CC08BAF10C0F32
:10227000E9D10A20FFF75EFE05460C20FFF75AFE63
:1022800000F0070028B1691E00EBC100C9F800008A
:1022900002E0E800C9F8000005B90125122D00D9B7
:1022A0001225002405E00920FFF744FE0399085594
:1022B000641CAC42F7D3C6E7000C014010B51420F3
:1022C000FFF738FE800704D10321BDE81040142039
:1022D0004AE710BD0321142052E72DE9F0410546DD
:1022E0000F46164604210520FFF74AFF0021012072
:1022F000FFF790FE80210A20FFF736FF002405E05B
:10230000295D0920FFF786FE641CE4B2BC42F7D3C6
:1023100003210120FFF77EFEFF240520FFF70AFEC0
:10232000641EE4B20CB14007F7D52220FFF702FE8D
:1023300030702120FFF7FEFD7070BDE8F08100B520
:1023400087B050208DF8040000208DF805000DF1B5
:102350000602022101A8FFF7C0FF06A8009001AB0A
:10236000042201A90C20FFF717FF07B0262000BDAB
:1023700030B587B005460C4608210846FFF700FF38
:1023800007210D20FFF746FE03211420FFF7ECFE86
:102390008DF8045006A8009001AB012201A90C2081
:1023A000FFF7FAFE262802D10699102902D0BB2099
:1023B00007B030BD9DF8041021709DF805106170C4
:1023C000F6E770B588B00646002408210846FFF7F6
:1023D000D7FE00210D20FFF71DFE80210E20FFF704
:1023E000CFFE93208DF8080020208DF8090007A863
:1023F000009002AB022202A90C20FFF7CDFE054699
:10240000262D0DD1002102A8425C7254425C54403A
:10241000491CC9B20429F7D3405CA04200D0BB25B7
:1024200080210E20FFF7A0FE284608B070BD10B531
:1024300088B093218DF8081070218DF809100021C3
:102440008DF80E1002AA5418435CA3709DF80E304C
:10245000445C63408DF80E30491CC9B20429F2D3A4
:10246000D21D072102A8FFF738FF08210846FFF711
:1024700087FE07A8009002AB092202A90C20FFF7F3
:102480008BFE262802D10799182900D0BB2008B05E
:1024900010BD30B587B08DF804008DF80510002010
:1024A00001A90D18145CAC70401CC0B20628F8D30A
:1024B00000200C181A5C2272401CC0B20628F8D307
:1024C00006A8009001AB0C2201A90E20FFF764FEC4
:1024D0000446262C04D10820FFF72CFD000700D469
:1024E000BB24204664E730B587B00D4630218DF817
:1024F00004108DF8050001ACA21C022101A8FFF711
:10250000ECFE06A8009001AB042201A90C20FFF705
:1025100043FE262802D10699902901D0BB2047E727
:102520000023E15CE9545B1CDBB2102BF9D33FE7DD
:1025300070B588B00D46A0218DF808108DF80900FF
:1025400002ACA21C022102A8FFF7C7FE07AE02AB35
:10255000042202A90C200096FFF71EFE262808D1AF
:102560000799042905D19DF8081001F00F010A29E7
:1025700000D0BB2026281ED10020295C2154401CFD
:10258000C0B21028F9D306AA102102A8FFF7A5FEB1
:1025900002AB122202A90C200096FFF7FDFD2628AF
:1025A00008D10799042905D19DF8081001F00F0101
:1025B0000A2900D0BB2038E71FB50121052000F013
:1025C000B8FF4FF40064ADF80C4048208DF80F00C0
:1025D00003208DF80E0003A92B4800F0A4FD0B2169
:1025E000002000F05CFE019400208DF808000C2013
:1025F0008DF8090001248DF80A4001A800F0C2FC02
:1026000028208DF800000F208DF801008DF80200C1
:102610008DF80340684600F05CFB1FBD38B5012112
:10262000102000F086FF4FF40054ADF80040102059
:102630008DF8030003208DF80200144D69462846EA
:1026400000F071FD2146284600F0DCFD38BD10B5D4
:102650004FF40064204600F0E6FC002813D014205C
:10266000FDF769FF2146084800F0B8FD30B9084A77
:10267000012010704103054800F0C6FD2046BDE86A
:10268000104000F0DEBC10BD000801400010014009
:102690000C00002030B589B0012140F6040000F0A4
:1026A00048FF4FF48070ADF8200018208DF823000B
:1026B00003208DF8220008A9204800F034FD4720AF
:1026C000ADF8140044F61F60ADF818000024ADF812
:1026D0001640ADF81A401A4D05A9284601F068F8D1
:1026E0006021ADF804100121ADF806104FF4FA7125
:1026F000ADF80A10ADF80C4001A9284601F091F898
:102700000821284601F028FC0121284601F0F4FBAD
:102710000121284601F01DFB0121284601F025FB7F
:1027200009B030BD4FF4FA614843B421B0FBF1F079
:1027300000F5FA7081B2024801F030BD0008014096
:10274000002C014038B50121082000F0F2FE802065
:10275000ADF8000010208DF8030003208DF8020072
:102760001F4C6946204600F0DEFC8021204600F028
:1027700049FD38BD10B51A4C8021204600F044FDBB
:102780004FF47A70FDF7D7FE2046BDE81040802157
:1027900000F038BD70B50024114D8021284600F0AE
:1027A00033FDC820FDF7C7FE8021284600F02AFD32
:1027B0006420FDF7C0FE641CE4B2022CEDD370BDB2
:1027C00010B5074C8021204600F01EFDC820FDF703
:1027D000B2FE2046BDE81040802100F013BD00008D
:1027E000000C014008B50121082000F0A2FE1020D5
:1027F0008DF8030003208DF802008002ADF8000080
:102800006946964800F08FFC08BD08B548208DF851
:1028100003004FF40060ADF8000003208DF80200C3
:1028200069468E4800F07FFC08BD08B510208DF881
:102830000300C001ADF8000003208DF802006946D6
:10284000864800F070FC08BD70B50122834D9402EB
:102850002146284600F0DAFC0122D60231462846FD
:1028600000F0D4FC0520FDF753FE00223146284637
:1028700000F0CCFC0520FDF74BFE00222146284647
:1028800000F0C4FCBDE870400520FDF741BE70B506
:10289000724D4FF4006400222146284600F0B6FC39
:1028A0000520FDF735FE01229102284600F0AEFC1E
:1028B0000520FDF72DFE01222146284600F0A6FC4A
:1028C000BDE870400520FDF723BE2DE9F041054627
:1028D0000024624E4FF400683715280605D5012202
:1028E0004146304600F092FC04E00022414630466A
:1028F00000F08CFC6806050E0520FDF709FE01229C
:102900003946304600F082FC0520FDF701FE00222A
:102910003946304600F07AFC0520FDF7F9FD641CCD
:10292000E4B2082CD9D3FFF770FF0520FDF7F0FDC6
:1029300001223946304600F069FC4146304600F03D
:102940004DFC04460520FDF7E3FD002239463046E4
:1029500000F05CFC0520FDF7DBFDFFF766FF14B11E
:10296000FF20BDE8F0812046FBE72DE9F047002578
:10297000FFF74BFF0024394E4FF400694FF08008F9
:102980004FF480670520FDF7C3FD0122394630462C
:1029900000F03CFC4946304600F020FC10B128FA1B
:1029A00004F005430520FDF7B3FD0022394630460B
:1029B00000F02CFC0520FDF7ABFD641CE4B2082CF4
:1029C000E0D30520FDF7A4FD01223946304600F092
:1029D0001DFC4946304600F001FC04460520FDF789
:1029E00097FD00223946304600F010FC0520FDF727
:1029F0008FFDFFF71AFF012C02D0FF20BDE8F08702
:102A00002846FBE770B506460C461546FFF71CFF47
:102A10003046FFF75AFF2046FFF757FF2846FFF7DB
:102A200054FFBDE8704032E770B504460D46FFF72D
:102A30000BFF2046FFF749FF2846FFF746FFFFF749
:102A400026FFFFF701FF44F00100FFF73EFFFFF70D
:102A50008CFF0446FFF71BFF204670BD000C0140B1
:102A600030B587B00446012144F2040000F061FD56
:102A700018208DF817004FF40070ADF814000320F3
:102A80008DF81600284D05A9284600F04CFB0420BF
:102A90008DF817000002ADF8140005A9284600F0D3
:102AA00042FB01940024ADF80840ADF80A40ADF8AF
:102AB0000C40ADF810400C20ADF80E001B4D01A9E4
:102AC000284601F0EBFB0121284601F062FC0122BF
:102AD00040F22551284601F068FC25208DF81800A9
:102AE00001208DF81B008DF8194002208DF81A0086
:102AF00006A800F0EEF807B030BD2DE9F04105461C
:102B00000E460024094F0BE0295D384601F0A2FC77
:102B10008021384601F00BFD0028F9D0641CA4B2D6
:102B2000B442F1D3BDE8F081000801400038014013
:102B30000CB50022019200925248016841F48031A4
:102B400001604FF4A063016801F400310091019924
:102B5000491C0191009911B901999942F3D1016879
:102B6000890302D50121009100E00092009901291A
:102B700030D145490A6842F010020A600A6822F022
:102B800007020A600A6842F002020A604168416076
:102B900041684160416841F480614160416821F4CD
:102BA0007C114160416841F4E8114160016841F0E5
:102BB0008071016001688901FCD5416821F0030141
:102BC0004160416841F0020141604168C1F3810107
:102BD0000229FAD10CBDABE710B52A48016841F0D3
:102BE000010101604168294A114041600168284A99
:102BF00011400160016821F480210160416821F4E5
:102C0000FE0141604FF41F018160FFF7E4FF21499D
:102C10004FF00060086010BD10B51A4A506800F00F
:102C20000C011D4B1D4800290ED004290ED0082987
:102C30000ED003605168194AC1F30311121D515C93
:102C40000268CA40026010BD0360F3E70360F1E769
:102C5000516801F47011536803F48033022404EBCB
:102C6000914133B153689B0307D50D4B5943016024
:102C7000E0E70B4B59430160DCE7074B5943016028
:102C8000D8E7000000100240002002400000FFF8DA
:102C9000FFFFF6FE08ED00E000127A0010000020B1
:102CA00000093D000648804706480047FEE7FEE76A
:102CB000FEE7FEE7FEE7FEE7FEE7FEE7FEE7FEE7EC
:102CC000D92B0008ED0000082A4908432A4908606A
:102CD000704770B50F23C27801260178002A1ED0F4
:102CE000254A126802F4E062C2F5E062120AC2F1FB
:102CF0000404D3404578A54082781A402A43120143
:102D000001F1E02181F80024007800F01F018E40DD
:102D10004009800000F1E020C0F8006170BD01F0C2
:102D20001F0086404809800000F1E020C0F8806163
:102D300070BD124A114001430F48001F01607047E7
:102D40000D4A121D002903D011680143116070471C
:102D500011688143116070474FF0E021042804D0CE
:102D6000086920F0040008617047086940F0040019
:102D7000086170470000FA050CED00E080FFFF1FBE
:102D800001684FF6FE721140016000210160416050
:102D90008160C1607249724A0839904204D1486822
:102DA00040F00F00486070476D4A1432904204D1E1
:102DB000486840F0F00048607047694A2832904205
:102DC00004D1486840F4706048607047644A3C32FF
:102DD000904204D1486840F4704048607047604AAF
:102DE0005032904204D1486840F4702048607047E7
:102DF0005B4A6432904204D1486840F470004860F5
:102E00007047574A7832904204D1486840F0706069
:102E100048607047534A111F904204D1086840F03F
:102E20000F00086070474F4A1432904204D108687E
:102E300040F0F000086070474A4A2832904204D1BE
:102E4000086840F4706008607047464A3C3290421F
:102E500004D1086840F4704008607047414A50321D
:102E60009042FAD1086840F470200860704730B58D
:102E7000026847F6F0739A430C6A8B682343D1E9E2
:102E800004452C4323438C692343CC6923434C6A78
:102E900023438C6A234313430360CA6842600A6871
:102EA00082604968C16030BD00210160416081607D
:102EB000C160016141618161C16101624162816200
:102EC0007047002904D0016841F00101016070479A
:102ED00001684FF6FE72114001607047002A03D06E
:102EE00002680A430260704702688A4302607047C2
:102EF00041607047406880B2704702460020D100B0
:102F000003D518490839096802E0154908390968E4
:102F1000114200D001207047C10003D51149091F9B
:102F2000086070470E490839486070470246002023
:102F3000D10003D50B490839096802E0084908396E
:102F40000968114200D001207047C10003D505492E
:102F5000091F08607047024908394860704700003F
:102F60000800024008040240384900200860091D9A
:102F70000860091D0860091D08603449344814318F
:102F80000860704730B5314A83790168002B2AD038
:102F900013688B431360111D0B680468A3430B6017
:102FA000017911440B68046823430B60274C0834F3
:102FB0002168036899432160231D19680568A943A6
:102FC00019604179102905D011440A68006802434C
:102FD0000A6030BD216802681143216019680068E9
:102FE0000143196030BD0079104402688A430260D1
:102FF00030BD0021016001710C2242718171704766
:10300000124910310A6802430A60704701460020E5
:103010000E4A143212680A4200D0012070470B4950
:1030200014310860704701460020084A12680A40BF
:10303000064B14331B680B4202D0002A00D001203B
:1030400070470249143108607047000000040140D5
:10305000FFFF0F0010B59C49884209D101210420CF
:1030600000F07DFA0021BDE81040042000F077BA9E
:103070009649884209D10121082000F070FA002108
:10308000BDE81040082000F06ABA9149884209D191
:103090000121102000F063FA0021BDE8104010204B
:1030A00000F05DBA8B49884209D10121202000F04F
:1030B00056FA0021BDE81040202000F050BA8649A1
:1030C000884209D10121402000F049FA0021BDE8E1
:1030D0001040402000F043BA8049884209D10121C4
:1030E000802000F03CFA0021BDE81040802000F074
:1030F00036BA7B4988420AD184150121204600F066
:103100002EFA2046BDE81040002100F028BA10BD7C
:1031100010B50121084600F022FA0021BDE8104058
:10312000012000F01CBA2DE9F0410022CC7804F017
:103130000F03E40601D58C7823430C784FF00F077A
:1031400014F0FF0F4FF0010C1CD005680CFA02F4CC
:103150000E882640A64211D1960007FA06F825EA05
:10316000080503FA06F848EA0505CE78282E02D0AD
:10317000482E02D002E0446100E00461521C082A9B
:10318000E4D305600A88FF2A1ED94568002202F1AF
:1031900008060CFA06F40E882640A64210D19600C6
:1031A00007FA06F825EA080503FA06F848EA0505CD
:1031B000CE78282E00D14461CE78482E00D104610B
:1031C000521C082AE3D34560BDE8F0814FF6FF7139
:1031D0000180022181700421C170704702460020E5
:1031E00092680A4200D001207047806880B2704720
:1031F00002460020D2680A4200D001207047C06811
:1032000080B270470161704741617047002A01D068
:103210000161704741617047C160704741F480327D
:1032200082618161826181698069704710B52D4B2F
:103230001A684FF68074224042EA00100843186072
:1032400010BD2949C8617047F0B5264C002801DA45
:10325000E36900E06368C0F30346420D120185B2E2
:10326000C0F301579540032F07D0C2020CD50322AB
:10327000B240934343F0706209E023F070626368E8
:1032800023F07063636002E0AB4343F0706201B10E
:103290002A43002801DAE261F0BD6260F0BD10B59A
:1032A0008A07120F0F23934021F003040D49214494
:1032B0008C689C438C608B68904003438B6010BD8E
:1032C0000949DC310860704700080140000C0140EA
:1032D000001001400014014000180140001C014092
:1032E000002001400000014000002042B448016875
:1032F00041F0010101604168B24A1140416001683A
:10330000B14A11400160016821F4802101604168E7
:1033100021F4FE0141604FF41F0181607047A8490C
:103320000A6822F480320A600A6822F480220A6065
:10333000B0F5803F07D0B0F5802F03D1086840F486
:10334000A02008607047086840F48030086070472B
:103350000346002059099A4A01290AD002290AD0B5
:10336000516A03F01F02012393400B4200D0012059
:1033700070471168F5E7116AF3E718B5002000906F
:103380004FF4A0643120FFF7E3FF0099491C00913E
:103390000099A14201D00028F4D03120FFF7D8FFD6
:1033A00008B1012018BD002018BD854A116821F020
:1033B000F80141EAC0001060704784490860704716
:1033C0007F4B5A6822F47C120843104358607047C0
:1033D0007E49086670477A4A516821F0030101432B
:1033E000516070477648406800F00C007047744A9E
:1033F000516821F0F001014351607047704A5168F3
:1034000021F4E0610143516070476D4A516821F435
:10341000605141EAC00050607047694A002903D0FA
:10342000517A014351727047517A8143517270470A
:103430006649D83108607047614A516821F44041BB
:103440000143516070475E49002220310A7001F843
:103450002029012805D0042802D1052081F8200068
:103460007047012081F82000704759490860704773
:1034700053490A6A02430A62704755494439086051
:10348000704710B54E4A516801F00C01514B0029AC
:1034900027D0042927D0082927D00360516801F0DC
:1034A000F00109094C4B5C5C0168E14041605468E3
:1034B00004F4E064240A1C5D21FA04F48460546876
:1034C00004F46054E40A1B5DD940C160526802F400
:1034D0004042920B404B1B1F9A5CB1FBF2F1016121
:1034E00010BD0360DAE70360D8E7516801F470119A
:1034F000536803F48033022404EB914133B15368E1
:103500009B0307D5354B59430160C7E7334B5943FC
:103510000160C3E72F4B59430160BFE7284A0029E8
:1035200003D0516901435161704751698143516131
:103530007047234A002903D0916901439161704784
:1035400091698143916170471D4A002903D0D16977
:103550000143D1617047D1698143D1617047184AF5
:10356000002903D0D1680143D1607047D1688143FD
:10357000D1607047124A002903D0116901431161DB
:1035800070471169814311617047114940390860E2
:1035900070470E49C86470470949C87170470848A8
:1035A000416A41F080714162704701460020044A3F
:1035B00092680A4200D00120704701498872704722
:1035C000001002400000FFF8FFFFF6FE000042423C
:1035D0008004424200127A002800002000093D00C9
:1035E00010B5FE4988420AD1C41401212046FFF7D4
:1035F000B6FF2046BDE810400021FFF7B0BFB0F194
:10360000804F0CD0F649884213D101210220FFF7E8
:10361000B1FF0021BDE810400220FFF7ABBF012140
:103620000846FFF7A7FF0021BDE810400120FFF783
:10363000A1BFEC49884209D101210420FFF79AFF7C
:103640000021BDE810400420FFF794BFE6498842FE
:1036500009D101210820FFF78DFF0021BDE81040AE
:103660000820FFF787BFE149884209D101211020D6
:10367000FFF780FF0021BDE810401020FFF77ABF60
:10368000DB49884209D101212020FFF773FF002187
:10369000BDE810402020FFF76DBFD64988420AD10F
:1036A000441401212046FFF75AFF2046BDE8104090
:1036B0000021FFF754BFD04988420AD10121CC0430
:1036C0002046FFF74CFF2046BDE810400021FFF7E1
:1036D00046BFCA4988420AD101210C052046FFF79E
:1036E0003EFF2046BDE810400021FFF738BFC44927
:1036F00088420AD101214C052046FFF730FF2046C1
:10370000BDE810400021FFF72ABFBE49884209D119
:1037100001214020FFF72EFF0021BDE8104040208E
:10372000FFF728BFB849884209D101218020FFF75F
:1037300021FF0021BDE810408020FFF71BBFB349E7
:1037400088420AD1841501212046FFF713FF204645
:10375000BDE810400021FFF70DBFAD4988420AD1F6
:1037600001210C042046FFF7FAFE2046BDE8104078
:103770000021FFF7F4BEA74988420AD101214C0479
:103780002046FFF7ECFE2046BDE810400021FFF781
:10379000E6BEA14988420AD101218C042046FFF7E8
:1037A000DEFE2046BDE810400021FFF7D8BE10BD68
:1037B00030B50288894C8F4DA0420DD0A8420BD065
:1037C000B0F1804F08D0864B984205D0854B984287
:1037D00002D0854B984203D122F070034A881A43E5
:1037E000824B984206D0824B984203D022F4407319
:1037F000CA881A4302808A8882850A880285A04284
:103800000AD0A84208D0824A904205D0814A90420C
:1038100002D0814A904201D1097A01860121818238
:1038200030BD30B5028C22F001020284028C838804
:10383000048B24F0700424F003050C882C4322F040
:1038400002020D8915434A882A43644DA8420BD0D1
:10385000684DA84208D06E4DA84205D06D4DA842D3
:1038600002D06D4DA8420FD122F008054A892A43A3
:1038700022F004058A882A4323F4807323F400731A
:103880008D891D43CB892B4383800483C98881861E
:10389000028430BD70B5028C22F010020284028CCA
:1038A0008388048B24F4E04424F440760D884FF69A
:1038B000FF7404EA0525354322F020020E8904EA4C
:1038C000061616434A8804EA02123243434EB042B7
:1038D00002D0484EB04217D122F080024E8904EA4D
:1038E0000616164326F040068A8804EA021232437E
:1038F00023F4806323F400638E8904EA86061E4362
:10390000CB8904EA8303334383800583C988018715
:10391000028470BD70B5028C22F480720284028C25
:103920008388848B24F0700424F003040D882543DD
:1039300022F400720E894FF6FF7404EA062616433D
:103940004A8804EA02223243244EB04202D0294E71
:10395000B04217D122F400664A8904EA02223243B7
:1039600022F480668A8804EA0222324323F48053D8
:1039700023F400538E8904EA06161E43CB8904EA19
:103980000313334383808583C9888187028470BD94
:1039900070B5028C22F480520284058C8288838B5D
:1039A00023F4E04323F440760C884FF6FF7303EAD8
:1039B0000424344325F400550E8903EA06362E43C9
:1039C0004D8803EA05353543044EB04202D0094E16
:1039D000B04226D122F480468A891FE0002C0140A3
:1039E0000004004000080040000C004000100040AF
:1039F0000014004000340140004C014000500140E0
:103A00000054014000180040001C0040002000400D
:103A100000400140004401400048014003EA821296
:103A2000324382808483C988A0F84010058470BD29
:103A3000828B22F440628283828B4FF6FF7303EA0B
:103A400001210A4382837047F0B5048C24F480542A
:103A50000484868B048C4FF6FF7505EA013726F443
:103A6000734605EA0222324305EA03331343F74A59
:103A700090420ED0F64A90420BD0B0F1804F08D061
:103A8000F44A904205D0F44A904202D0F34A904260
:103A900005D124F40051394341F4805104E024F469
:103AA00002420A4342F4805183830184F0BD828B39
:103AB00022F00C028283828B0A4382837047F0B526
:103AC000048C24F480740484858B048C4FF6FF7777
:103AD00007EA012625F0F30507EA031313432B43F6
:103AE000DA4A90420ED0DA4A90420BD0B0F1804FC1
:103AF00008D0D84A904205D0D74A904202D0D74A3F
:103B0000904205D124F40071314341F4807104E006
:103B100024F420620A4342F4807183830184F0BD5F
:103B2000028B22F440620283028B4FF6FF7303EA9A
:103B300001210A4302837047F0B5048C24F010047D
:103B40000484068B048C4FF6FF7505EA011726F4F2
:103B5000734605EA0333334305EA02221A43BB4B9B
:103B600098420ED0BA4B98420BD0B0F1804F08D09B
:103B7000B84B984205D0B84B984202D0B74B984208
:103B800005D124F02001394341F0100104E024F074
:103B9000A0030B4343F0100102830184F0BD028BAC
:103BA00022F00C020283028B0A430283704770B535
:103BB000048C24F001040484058B048C25F0F305A7
:103BC0004FF6FF7606EA031313432B439F4A9042B6
:103BD0000ED09F4A90420BD0B0F1804F08D09D4A42
:103BE000904205D09C4A904202D09C4A904205D116
:103BF00024F002020A4342F0010104E024F00A0228
:103C00000A4342F001010383018470BD70B505468B
:103C10000C468E48854209D08D48854206D0B5F1C4
:103C2000804F03D08B48854200D08B482088618824
:103C3000A288238958B1042811D0082817D0284613
:103C4000FFF702FFE1882846BDE87040F0E628460D
:103C5000FFF7ADFFE1882846BDE870409FE72846A2
:103C6000FFF76AFFE1882846BDE8704058E728461C
:103C7000FFF725FFE1882846BDE8704017E72DE9EA
:103C8000F04107460C46002501266188002900D135
:103C90000225A288012A00D102262088238988B122
:103CA0003846FFF749FFE1883846FFF739FF238997
:103CB000324629463846FFF77AFFE1883846BDE8A4
:103CC000F0416CE73846FFF772FFE1883846FFF7AE
:103CD00066FF2389324629463846FFF72DFFE188E3
:103CE0003846BDE8F0411BE710B50A884B88CC8800
:103CF0001A438B8823431A430B891A434B898989BA
:103D00001A430A43A0F8442010BD4FF6FF7181808A
:103D100000210180C1804180017270470021018033
:103D200041808180C180018141818181C181704751
:103D300000210180418001228280C1800181704781
:103D40000021018041808180C18001814181818188
:103D50007047002904D0018841F0010101807047BB
:103D6000018821F0010101807047002905D030F859
:103D7000441F41F400410180704730F8441FC1F3F3
:103D80000E0101807047002A03D082890A43828194
:103D9000704782898A4382817047818270471143CC
:103DA000A0F848107047002A03D082890A43828114
:103DB000704782898A4382817047018921F0070117
:103DC00001817047028922F070020A430281704724
:103DD00000B503461846FFF7F5FF188940F00700C5
:103DE000188100BD70B50D4604461146602D0CD0FB
:103DF00001222046FFF7DBFE29462046FFF7E2FFBF
:103E0000208940F00700208170BD01222046FFF785
:103E100093FEF1E730B50489E4B24FF6FF7505EA89
:103E2000032313430B432343038130BD10B50446E2
:103E30002046FFF7EFFF208920F0070040F0070041
:103E400020F0700040F07000208110BD002C014077
:103E5000003401400004004000080040000C004015
:103E600010B504462046FFF7D5FF208940F4804076
:103E70002081EAE7018582827047028822F0700281
:103E80000A430280704770B50589048B068C25F0C3
:103E900007050D434FF6FC410C4040F201110C4365
:103EA00026F022064FF6FF7101EA03111143314358
:103EB00005810483018470BD028B22F070020A43E5
:103EC00002837047028B22F4E0424FF6FF7303EA4D
:103ED0000121114301837047828B22F070020A4353
:103EE00082837047828B22F4E0424FF6FF7303EA2D
:103EF0000121114381837047002904D0018841F0DA
:103F0000800101807047018821F0800101807047A5
:103F1000002904D0818841F00401818070478188A4
:103F200021F0040181807047002904D0818841F08C
:103F3000080181807047818821F0080181807047E5
:103F4000002904D0818841F0010181807047818877
:103F500021F0010181807047028B22F008020A43A0
:103F600002837047028B22F400624FF6FF7303EA6C
:103F70000121114301837047828B22F008020A431A
:103F800082837047828B22F400624FF6FF7303EA4C
:103F90000121114381837047028B22F004020A43FE
:103FA00002837047028B22F480624FF6FF7303EAAC
:103FB0000121114301837047828B22F004020A43DE
:103FC00082837047828B22F480624FF6FF7303EA8C
:103FD0000121114381837047028B22F080020A4342
:103FE00002837047028BC2F30E024FF6FF7303EA9F
:103FF0000121114301837047828B22F080020A4322
:1040000082837047828BC2F30E024FF6FF7303EA7E
:104010000121114381837047028C22F002020A437E
:1040200002847047028C22F008020A43028470471F
:10403000028C22F020024FF6FF7303EA01111143B4
:1040400001847047028C22F080024FF6FF7303EA6E
:104050000111114301847047028C22F400724FF663
:10406000FF7303EA0121114301847047028C22F49B
:1040700000624FF6FF7303EA012111430184704788
:10408000028C22F400524FF6FF7303EA0131114310
:104090000184704710B501238B40048C9C43048439
:1040A000038C8A4013430384CFE610B504238B406E
:1040B000048C9C430484038C8A4013430384C4E629
:1040C00030B500F1180301248C40058CA54305840C
:1040D000002911D008290FD0091FC1F34E00184440
:1040E000016821F4E041016001684FF6FF7303EAC3
:1040F00002221143016030BD03EB5100016821F041
:104100007001016001681143016030BD002904D0D5
:10411000018841F0020101807047018821F002010D
:1041200001807047002904D0018841F0040101801A
:104130007047018821F0040101807047002904D0F4
:10414000818841F0800181807047818821F0800161
:1041500081807047028822F00802028002880A43A8
:1041600002807047828822F07002828082880A432F
:1041700082807047028922F00702028102890A4385
:1041800002817047028922F08002028102890A437B
:1041900002817047818470478185704781867047AE
:1041A0000187704781877047A0F8401070470288E8
:1041B00022F44072028002880A4302807047808E97
:1041C0007047008F7047808F7047B0F8400070478D
:1041D000808C7047008D704702460020128A0A4288
:1041E00000D001207047C943018270470246002079
:1041F000138A0B4092890A40002B02D0002A00D07B
:1042000001207047C94301827047000010B5E149A1
:1042100088420AD101218C032046FFF7A0F92046ED
:10422000BDE810400021FFF79AB9DB4988420AD166
:1042300001214C042046FFF79DF92046BDE81040BF
:104240000021FFF797B9D54988420AD101218C0492
:104250002046FFF78FF92046BDE810400021FFF708
:1042600089B9CF4988420AD10121CC042046FFF701
:1042700081F92046BDE810400021FFF77BB9C9490C
:1042800088420AD101210C052046FFF773F9204628
:10429000BDE810400021FFF76DB910BD30B585B005
:1042A00004460D46208A4CF6FF710840E988014318
:1042B0002182A0894EF6F3110840A9882A8911436A
:1042C0006A8902431143A181A08A4FF6FF41084049
:1042D000A9890143A1826846FFF7D3F8AD4884421B
:1042E00001D1039800E00298A189090408D500EBE8
:1042F000C00101EB001029684900B0FBF1F007E0B4
:1043000000EBC00101EB001029688900B0FBF1F05F
:104310006422B0FBF2F109010B096FF018056B4341
:1043200000EB8300A3891D044FF0320307D503EB94
:10433000C000B0FBF2F000F00700084306E003EB1A
:104340000010B0FBF2F000F00F000843208105B030
:1043500030BD4FF41651016000218180C180018180
:104360000C2242818181704710B5038A4FF2FF020F
:1043700013400A884C8822438C88C9880C43224306
:104380001A43028210BD0021018041808180C180DA
:104390007047002904D0818941F400518181704720
:1043A000818921F400518181704710B540F66A136C
:1043B000C1F3421301F01F040121A140012B07D0DA
:1043C000022B07D014303AB102680A43026010BDD4
:1043D0000C30F8E71030F6E702688A43026010BD3F
:1043E000002A03D0828A0A4382827047828A8A43E3
:1043F00082827047028A22F00F020282028A0A43F6
:1044000002827047828922F40062828182890A4393
:1044100082817047002904D0818941F002018181A5
:104420007047818921F0020181817047028A22F060
:1044300020020282028A0A4302827047002904D0C5
:10444000018A41F4804101827047018A21F4804150
:1044500001827047C1F30801818070478088C0F3F2
:1044600008007047818941F0010181817047028B0A
:10447000D2B20283028B42EA012101837047028B90
:1044800002F47F420283028B0A43028370470029B1
:1044900004D0818A41F0200181827047818A21F015
:1044A000200181827047002904D0818A41F01001E7
:1044B00081827047818A21F0100181827047002932
:1044C00004D0818A41F0080181827047818A21F0FD
:1044D000080181827047002904D0818941F400419C
:1044E000818170478189C1F30E0181817047002964
:1044F00004D0818A41F4006181827047818A21F46D
:10450000006181827047828A22F004028282828A5C
:104510000A4382827047002904D0818A41F0020157
:1045200081827047818A21F00201818270470246B0
:10453000002012880A4200D0012070478A05C94332
:104540000180704770B5002440F66A12C1F342132F
:1045500001F01F05012606FA05F2012B0CD0022BF3
:104560000DD0838A1340090A8E40008830400BB179
:1045700000B10124204670BD83891340F3E7038A0C
:104580001340F0E740F66A120A0A01219140C9433C
:10459000018070470038014000440040004800405E
:1045A000004C004000500040D2B201E000F8012B66
:1045B000491EFBD270470022F6E710B513460A46A3
:1045C00004461946FFF7F0FF204610BD30B50546FA
:1045D0002A460B4612F8010B13F8014B08B1A04212
:1045E000F8D01CB1002802D06D1CF1E7284630BD80
:1045F000CAB2401E10F8011F8A4202D00029F9D128
:1046000000207047421C10F8011B0029FBD1801AC2
:10461000704710B5002200E0521C835C8C5CA34202
:1046200001D1002BF8D1D8B2E1B2401A10BDF0B4DC
:1046300080EA0102D40F4200B2EB410F02D20246DF
:10464000084611464A0042D0C30DDDB2C1F3C7523D
:10465000AD1A202D35DAC1F3160141F4000204B180
:104660005242C5F1200602FA06F12A411044B3EB8A
:10467000D05F23D0C4B1012DA0EBC35009DCF0BC46
:104680004FF0004202EAC352DBB200F5000000F036
:10469000DABA400000F1807000EBC350A0F18070E6
:1046A00040EAD170490009E0490841EAC071A0EB35
:1046B000C35000F50000400800EBC350F0BC00F010
:1046C000B9BA6142012202EB4101001BF6E7F0BCDE
:1046D000704781F00041AAE780F00040A7E72DE98C
:1046E000FE4F804681EA0300C00F0C46009021F087
:1046F000004123F00045B8EB0200A94105D2404635
:10470000214690461C460B46024623F000401043CB
:1047100047D0270DC7F30A00C3F30A510290401A8D
:10472000019040286BDAC3F3130040F4801B00981B
:10473000924620B10023D2EB030A63EB0B0B0198E6
:104740005946C0F14002504600F043FA06460D4675
:1047500050465946019A00F05BFA10EB080061419F
:10476000002487EA115284EAE7731A4340D0009A82
:1047700062B3019A012A4FEA075215DC001B61EB74
:1047800002014FF0004202EA0752CDE90042001C4C
:1047900041F5801132462B4600F092FA03B0BDE895
:1047A000F08F40462146F9E7001B61EB0201001C37
:1047B00041F5801300185B412018A2F5001747EB64
:1047C000030140EAD570B6196D4111E06D084FEA5A
:1047D000360645EAC0754FEA0752001B61EB02013D
:1047E000001C41F5801149084FEA30000019514181
:1047F00032462B4603B0BDE8F04F00F052BA0098A5
:10480000012240000023D0EB020263EBE07300982A
:1048100021464FEAE074B8EB000061EB0401E9E7E0
:1048200083F000435BE781F0004158E72DE9FE4F3C
:1048300081EA030404F0004421F0004100944FF0A9
:10484000000B23F0004350EA01045ED052EA030457
:104850005BD0C3F30A54C1F30A552C44A4F2F334D9
:104860000194A0FB0254C1F3130141F48011C3F37E
:10487000130343F4801301FB024400FB034E840A3C
:10488000970A44EA815447EA8357A4FB07680295D4
:104890008D0A05FB07854FEA932C04FB0C54270572
:1048A000029D4FEA065847EA1637B5EB08056EEB4E
:1048B000070C870E920E47EA811742EA8312A7FB84
:1048C0000201B6EB0B0164EB00042B0D43EA0C3341
:1048D0005E1844EB1C50DA465146E7FB0201C5F373
:1048E00013044FEA0B3343EA14534FEA0432019C9A
:1048F00043EA0603A4F10C040294009CCDE900B441
:1049000000F0DEF903B0BDE8F08F00200146F9E7C2
:104910002DE9F04D81EA030404F0004B21F000453D
:1049200014464FF0000A23F0004150EA050220D05F
:1049300054EA01021DD0C5F30A570246C5F313031A
:10494000C1F31300C1F30A5640F4801543F48013F9
:10495000A7EB0608101BD64608F2FD3873EB0500DE
:1049600002D308F1010801E092185B41B8F1000F91
:1049700003DA00200146BDE8F08D00204FF48011DD
:10498000064684460EE0171B73EB050705D3121B82
:1049900063EB050306434CEA010C49084FEA30007B
:1049A00092185B4150EA0107EDD152EA030012D0A0
:1049B00082EA040083EA0501084305D0101BAB41DD
:1049C00006D20122002306E000224FF0004302E05D
:1049D0006FF0010253101AEB06004CEB085110EB7C
:1049E0000A0041EB0B01BDE8F04D00F05AB9C10FD0
:1049F00080EAE0700844CA079623002100F023B93A
:104A00000EB5C10F80EAE0700844CA07002140F2E9
:104A100033438DE80E000A460B4600F051F903B00F
:104A200000BD0EB540F2334102910021CDE90011E5
:104A30000A460B4600F044F903B000BD70B5C1F35F
:104A40000A5201F000450024C1F3130140F2FF3384
:104A500041F480119A4201DA002070BD40F23343E4
:104A60009A42A2F2334203DC524200F0C1F800E065
:104A700090402C43F1D0404270BDC1F30A5210B5B2
:104A8000C1F3130140F2FF3341F480119A4201DA7D
:104A9000002010BD40F233439A42A2F2334203DCBD
:104AA000524200F0A5F810BD904010BD30B5041E74
:104AB00071F1000404DB4FF00044404264EB01015B
:104AC000141E73F1000405DB1C464FF000435242F4
:104AD00063EB04038B4208BF824230BD30B5041E35
:104AE00071F1000404DB4FF00044404264EB01012B
:104AF000141E73F1000405DB1C464FF000435242C4
:104B000063EB0403994208BF904230BD01F00043BB
:104B100030B421F0004150EA010206D00A0DA2F59E
:104B20006072C1F31301002A02DC30BC0020704720
:104B3000440F44EAC104C100E01830BC00EBC2508D
:104B400000F078B830B50B46014600202022012441
:104B500009E021FA02F59D4205D303FA02F5491B4B
:104B600004FA02F52844151EA2F10102F1DC30BD61
:104B70002DE9F05F0546002092469B468846064692
:104B8000814640241BE0284641464746224600F025
:104B90002FF853465A46C01A914110D31146184671
:104BA000224600F016F82D1A67EB01084F46224600
:104BB0000120002100F00DF817EB00094E41201EE6
:104BC000A4F10104DFDC484631462A464346BDE8ED
:104BD000F09F202A04DB203A00FA02F100207047FF
:104BE0009140C2F1200320FA03F31943904070472B
:104BF000202A04DB203A21FA02F00021704721FA32
:104C000002F3D040C2F12002914008431946704798
:104C1000202A06DBCB17203A41FA02F043EAE07380
:104C200006E041FA02F3D040C2F12002914008436D
:104C3000194670470029A8BF7047401C490008BFAB
:104C400020F00100704710B4B0FA80FC00FA0CF0BC
:104C500050EA010404BF10BC704749B1CCF12004F4
:104C600021FA04F411FA0CF118BF01212143084381
:104C7000A3EB0C01CB1D4FEA00614FEA102042BFAD
:104C8000002010BC704700EBC35010440029A4BFA3
:104C900010BC7047401C490008BF20F0010010BC48
:104CA000704710B5141E73F1000408DA401C41F17E
:104CB000000192185B411A4301D120F0010010BDA0
:104CC0002DE9F04D92469B4611B1B1FA81F202E016
:104CD000B0FA80F220329046FFF77BFF04460F4681
:104CE00040EA0A0041EA0B0153465A46084313D0F2
:104CF000114653EA010019D0C8F140025046FFF7AF
:104D000077FF05460E46504659464246FFF761FF7B
:104D1000084305D0012004E020463946BDE8F08D67
:104D20000020054346EAE0762C4337430A986305A2
:104D3000E40AA0EB08000022FD0A44EA47540A30C6
:104D400002D500200146E9E7010510196941DDE9B6
:104D5000084500196941BDE8F04DA2E72DE9F04191
:104D6000054621F000400C46284309D0C4F30A5000
:104D700040F23341884205DD28462146BDE8F081F6
:104D80002846FBE740F2FE31884210DC0CDB4FEA9C
:104D9000043040EA155050EA053105D0104804F0BF
:104DA000004101430020E9E700200146E6E7A0F2C8
:104DB00033404642C6F1400228462146FFF709FF2C
:104DC00007468846284621463246FFF711FF4346EC
:104DD0003A46FFF766FF3246BDE8F041FFF7F9BEFD
:104DE0000000F03FC1F30A52C1F3130140F2FF3358
:104DF00041F480119A4202DA00200146704740F2E5
:104E000033439A42A2F2334202DC5242FFF7F0BE31
:104E1000FFF7DFBE064C074D06E0E06840F00103F7
:104E200094E8070098471034AC42F6D3FBF762F9D8
:104E3000F86700081868000870B521F000430343C4
:104E40000CD0C1F30A550024D5EB040564EB040330
:104E5000D617AD1AB34102DB0020014670BD201801
:104E600041EB025170BD00000FB4084B10B504A90E
:104E700002AA039800F06CF9044602A9002000F091
:104E8000EAFC204610BC5DF814FB000057580008EF
:104E900037B514460846064B6A46214600F058F9D5
:104EA00004466946002000F0D6FC20463EBD0000C6
:104EB00057580008490050EAC12018BF04204A0D85
:104EC00018BF40F0010040F2FF72B2EB515F08BF23
:104ED00040F00200012808BF052070472DE9F0418D
:104EE0004F1E00EBC7010446D1E9000115461E46DE
:104EF00037F006020DD02A463346FFF797FC7F1E97
:104F000004EBC703D3E90023FFF7E9FB37F0060200
:104F1000F1D1022F25D0042F13D0062F18BFBDE8E2
:104F2000F0812A463346FFF781FCD4E90A23FFF7D4
:104F3000D6FB2A463346FFF779FCD4E90823FFF76E
:104F4000CEFB2A463346FFF771FCD4E90623FFF770
:104F5000C6FB2A463346FFF769FCD4E90423FFF772
:104F6000BEFB2A463346FFF761FCD4E90223FFF774
:104F7000B6FB2A463346FFF759FCD4E90023BDE8C7
:104F8000F041FFF7ACBB0122FFF756BFFFF7A7BB0D
:104F9000024A00201107FFF74FBF000001FDFFFF8D
:104FA00002E008C8121F08C1002AFAD170477047F2
:104FB000002001E001C1121F002AFBD17047000050
:104FC0000149086070470000380000202DE9FF5FAC
:104FD00082B00021DDE90430020DDDF840B003436A
:104FE00018D044F61050A2F2FF3242431514119823
:104FF00001281FD0A5EB0B00401C5FEA000A4FF010
:1050000000064E4FDFF83891B046504615D5CAF12C
:10501000000413E0119801244AA3012801D16FEA8A
:105020000B010298119AC0E90031C0E9024206B0B2
:10503000BDE8F09FCBF10000DFE704460021404AC5
:10504000491842EB0450CDE9001012E0E00707D008
:1050500032463B4640464946FFF7E8FB80468946D4
:1050600032463B4610461946FFF7E0FB06460F4620
:105070006410002CEAD1DDE90401DDE90023BAF176
:10508000000F06DAFFF7D2FB42464B46FFF7CEFB96
:1050900005E0FFF73DFC42464B46FFF739FC04466E
:1050A0000E460022284BFFF719FD03D84FF0FF30C2
:1050B000014607E00022254B20463146FFF70FFB53
:1050C000FFF790FE102409E0002C0ADB0A220023DF
:1050D000FFF74EFD039B30321A55641E50EA010261
:1050E000F2D1641C039AC4F111031444119A012AE9
:1050F00003D0012208430DD10AE0084304D0002068
:105100004FF0110B119072E7A3EB0B056D1E0DE034
:105110005B4504DD4FF0000205F1010504E003DA10
:105120004FF00002A5F10105002AECD00298119978
:10513000C0E90231C0E9004579E7000000001440F1
:105140000000F03F300000000000F0430000E03FAE
:105150002DE9FF4F95B09A46884606460025EEE1B8
:10516000252877D100242746F94A0121039400E03D
:10517000044316F8013F203B01FA03F01042F7D137
:1051800030782A2811D06FF02F033078A0F1300248
:10519000092A16D8039A44F0020402EB820203EBB8
:1051A00042021044761C0390EFE758F8042B039258
:1051B000002A03DA504244F40054039044F00204FD
:1051C000761C30782E2816D116F8010F44F004040E
:1051D0002A280DD06FF02F023078A0F13003092B70
:1051E00009D807EB870302EB4303C718761CF3E7E4
:1051F00058F8047B761C30786C280FD006DC4C28DD
:1052000017D068280DD06A2814D104E0742810D073
:105210007A280FD10DE044F400140AE044F480141D
:1052200001E044F440147278824202D104F5801403
:10523000761C761C307866280BD013DC582877D083
:1052400009DC002875D04528F6D04628F4D0472838
:105250001AD193E118E0632835D0642879D0652805
:1052600012D18BE1702873D008DC6728F1D069284F
:105270006FD06E280DD06F2806D1ACE073282CD0EB
:10528000752874D0782853D05246179990476D1CD2
:1052900054E1C4F30250022809D003280DD0D8F8F5
:1052A000001004280DD00D6008F1040846E1D8F87C
:1052B0000010EA17C1E90052F6E7D8F800100D8097
:1052C000F2E70D70F0E718F8041B8DF800100020CD
:1052D0008DF80100EB46012003E058F804BB4FF0C5
:1052E000FF3061074FF0000102D40DE009F1010128
:1052F0008946B9420FDA8145F8DB1BF8091000290D
:10530000F4D108E009F1010189468142FADB1BF87A
:1053100009100029F6D103985346A0EB090721464E
:105320003846179A00F080FA284400EB090507E098
:1053300044E008E10DE01BF8010B52461799904735
:10534000B9F10109F7D2534621463846179AF2E0DF
:1053500039E00A21C4F302524FF0000B0091022AF7
:1053600006D058F8040BC117032A09D00AE023E03D
:1053700008F1070020F00702F2E80201904605E07C
:1053800000B2C117042A01D140B2C117002906DAC0
:105390000A460021404261EB02012D2202E0220573
:1053A00004D52B228DF80420012203E0E20701D06E
:1053B0002022F7E7914657E00A2100E010214FF044
:1053C000000B00910BE010214FF0000B44F004049F
:1053D0000827009103E008204FF0000B0090C4F371
:1053E0000252022A05D058F8040B0021032A08D0E3
:1053F00008E008F1070020F00702F2E802019046F9
:1054000003E080B2042A00D1C0B24FF000092207A5
:105410002AD53278702A07D0DDF800C08CF0100C45
:105420005CEA0B0C05D00EE040228DF8042001222E
:1054300008E050EA010306D030238DF804308DF8DF
:10544000052002229146009B83F0080353EA0B03D8
:105450000AD150EA010201D1620705D530228DF848
:1054600004204FF001097F1E3278582A04D039A257
:105470000C920CAA02920BE03BA2F9E75B46009A61
:10548000FFF776FB0C9B9B5C029A521E02921370F4
:1054900050EA0102F2D1029804A9081A00F1200B87
:1054A000600702D524F4803400E001275F4502DD67
:1054B000A7EB0B0000E0002000EB0B01009003982D
:1054C0004944401A0390E00306D453462146179AF4
:1054D000039800F0A9F90544002706E001A8524608
:1054E000C05D179990476D1C7F1C4F45F6DBE003AC
:1054F0000CD553462146179A039800F095F90544B8
:1055000004E030205246179990476D1C0099481EC0
:1055100000900029F5DC08E00298029952460078D4
:10552000491C0291179990476D1CBBF10001ABF12A
:10553000010BF1DC5BE100F065F90544761C307885
:1055400000287FF40DAE19B02846BDE8F08F0000AA
:105550000928010030313233343536373839616249
:10556000636465660000000030313233343536370D
:10557000383941424344454600000000600700D4EA
:10558000062708F1070020F00700F0E80223804614
:1055900003F0004C5FEA0C0001D097A009E0200561
:1055A00001D596A005E0E00701D095A001E0AFF29B
:1055B0004C001390307823F0004365280CD006DCB3
:1055C000452809D046281DD047287FD13BE06628D2
:1055D00018D067287AD136E00021112F01DB112085
:1055E00000E0781CCDE9000104A90CA8FFF7EEFC4F
:1055F000DDE90D010C9A4FF0000B07F10109109243
:1056000000914EE04FF000400097CDE9011004A951
:105610000CA8FFF7DBFCDDE90D020C9B0F994FF0A6
:10562000000B91461093009211B9791C00EB01090F
:10563000B7EB090003D4C0F1FF3B07F10109A9EB67
:105640000700019042E0012F00DA01270021112F0D
:1056500001DD112000E03846CDE9000104A90CA8C5
:10566000FFF7B4FCDDE90D010C9A00914FF0000B3F
:10567000B946109221070FD4009A4A4503DA9146A1
:1056800001E0A9F10109B9F1010F05DD109AA9F1B5
:105690000101515C3029F4D0B84202DA10F1040F54
:1056A00003DA0121CDE9011010E0002803DC834476
:1056B000A9EB000102E0411C494500DD8946A0EB51
:1056C0000B00401C01904FF000400290200705D4D1
:1056D0000198484502DB4FF0FF30019000208DF823
:1056E0004B0002980DF14B07B0F1004F25D002207E
:1056F0000C902B200D90029800280CDA404202906A
:105700002D200D9007E00A210298FFF71BFA303197
:10571000029007F8011D0C99481E0C900029F2DC3C
:1057200002980028EFD1791E0D980870307800F0AB
:10573000200040F0450007F8020D11A8C01BC01D55
:1057400002901398007800B1012000EB0901019844
:1057500001EBE071029801440398401A401E039047
:10576000E00306D453462146179A039800F05CF8EC
:1057700005441398007818B15246179990476D1C4C
:10578000E00323D553462146179A039800F04CF8BE
:1057900005441BE0BBF1000F07DB0098584504DD12
:1057A0001098179910F80B0001E017993020524615
:1057B000904701980BF1010B401E05F10105019086
:1057C00004D12E205246179990476D1CB9F1000163
:1057D000A9F10109DEDC05E017F8010B5246179923
:1057E00090476D1C0299481E02900029F4DC534634
:1057F0002146179A03989EE62D0000002B0000001A
:10580000200000002DE9F041044600251E46174601
:10581000880404D405E039462020B0476D1C641E7E
:10582000F9D52846BDE8F0812DE9F0410446002570
:105830001E469046C80301D5302700E02027880483
:1058400004D505E041463846B0476D1C641EF9D5C5
:105850002846BDE8F0810A68531C0B601070704741
:105860002DE9F84F04460D4621F0004000917349A0
:10587000814211DC7249884201DC06D12CB12046FC
:105880002946BDE8F84FFFF77EBB6E48002DCCBF20
:105890006D496E49BDE8F88F6D49814211DD6D4952
:1058A0008142D8BF4FF0FF366DDD20462946FFF715
:1058B00001FB042808BFFFF76BFB20462946BDE823
:1058C000F88F6549654F25F00045814233DD644915
:1058D000814219DD002632464FF08043204629469A
:1058E000FEF7FDFE80468A46012220462946FFF744
:1058F000A3FA00223B46FEF793FF42465346FFF7CA
:1059000007F804460D463EE001260022BA463B4613
:1059100020462946FEF7E3FE80460F460022534606
:1059200020462946FEF77CFF42463B46FEF7F0FF45
:1059300004460D4627E04B4981421BDDDFF828A1D4
:1059400002260022534620462946FEF76FFF00221A
:105950003B46FEF7C4FE80460F46002253462046D3
:105960002946FEF75DFF42463B46FEF7D1FF04465F
:105970000D4608E0032622462B4600203B49FEF751
:10598000C7FF04460D4622462B4610461946FEF731
:105990004DFF8B46824602460B46FEF747FF074601
:1059A0000246334888460B4606217844FFF796FAAC
:1059B00052465B46FEF73AFF82462E488B463A46F1
:1059C000434605217844FFF789FA3A464346FEF7F5
:1059D0002DFF02460B46002E504659460CDAFEF7C4
:1059E0007EFE22462B46FEF721FF01B022462B46C3
:1059F000BDE8F04FFEF717BFFEF771FE22462B46BB
:105A0000FEF714FF1C4A7A4402EBC603D3E90023D5
:105A1000FEF706FF22462B46FEF702FF174A7A449E
:105A200002EBC603D3E90023FEF7FDFE009A002A2D
:105A3000B8BF81F00041BDE8F88F000000001044BD
:105A40000000F07F182D4454FB21F93FFB21F9BFE2
:105A50000000DC3F0000203E0000F33F0000F03F6C
:105A60000000E63F008003400000F83F0000F0BF68
:105A7000120E0000D00D00006E0D0000360D00006B
:105A80002DE9F04D9446CCF1000423F000464CEA99
:105A90000404594F46EAD4749A46884621F00042DD
:105AA000BC4206D8454240EA050442EAD474BC42EE
:105AB00004D9BDE8F04D6246FFF768BAAAF1405537
:105AC000A5F17F6555EA0C040BD0022404EAAA7400
:105AD0004A4DDFF82CE144EAD87452EA000B04D0B6
